:020000040800F2
:10000000401A0020057100080D6B00080F6B0008F6
:10001000116B0008136B0008156B0008000000004E
:10002000000000000000000000000000176B000846
:10003000196B0008000000001B6B00081D6B000816
:100040002D71000831710008357100083971000800
:100050003D710008417100084571000849710008B0
:100060004D71000851710008557100085971000860
:100070005D71000861710008657100086971000810
:100080006D710008717100087571000879710008C0
:100090007D71000881710008857100088971000870
:1000A0008D71000891710008957100089971000820
:1000B0009D710008A1710008A5710008A9710008D0
:1000C000AD710008B1710008B5710008B971000880
:1000D000BD710008C1710008C5710008C971000830
:1000E000CD710008D1710008D5710008D9710008E0
:1000F000DD710008E1710008E5710008E971000890
:10010000ED710008F1710008F5710008F97100083F
:10011000FD710008017200080572000809720008EC
:100120000D7200081172000815720008197200089B
:100130001D7200080000000000000000217200088D
:1001400025720008297200082D720008256B00082E
:100150002F6B0008317200083572000839720008F0
:100160003D7200084172000845720008497200089B
:100170004D7200085172000855720008000000001E
:10018000000000005972000800000000000000009C
:100190005D720008000000000000000061720008AD
:1001A0000000000000000000000000006572000870
:1001B000697200086D72000871720008757200089B
:1001C000797200080EB418B504000898012817D1F8
:1001D000A06B30F48030A063E168DFF828080140AC
:1001E000E160E06830F44010E0600F98012803D12E
:1001F000E06850F48010E060200000F095FE09E017
:10020000E06850F04000E060200000F08DFE5FF4F8
:100210008030A0630698012807D1A06850F006003E
:10022000A060A06850F02000A060002012BC5DF823
:1002300010FB0100886850F00100886000207047C2
:10024000010088684008400088600020704738B589
:1002500004000D00E06830F0C040E0602800C0B24B
:10026000012804D1E06850F00050E06007E0280069
:10027000C0B2002803D1E06850F08040E060322036
:1002800000F076FE002032BD0EB430B5040000252B
:10029000A06B50F40010A0630D9800280BD1A06B48
:1002A00030F40010A063206850F040002060206807
:1002B00050F080002060002014F56061086014F5A3
:1002C0000060006814F500610860089801280CD1EE
:1002D0000598002804D10021200000F0D5F808E09E
:1002E0000121200000F0D0F803E00321200000F0FD
:1002F000CBF81021200000F0A5F8200000F0B4F8A1
:10030000002014F500610861002014F500614861C7
:100310005FF0FF3014F500618861002014F5006182
:10032000C86100200399884222D214EB401111F5D4
:1003300010610968002907D55FF0904114EB401265
:1003400012F51062116005E0002114EB401212F565
:100350001062116014EB401111F5106100220A6166
:1003600014EB401111F51061FF228A60401CD9E79F
:1003700000210398814222D214EB411010F5306025
:100380000068002807D55FF0904014EB411212F589
:100390003062106005E0002014EB411212F530626B
:1003A000106014EB411010F530600022026114EB74
:1003B000411010F53060FF228260491CD9E714F526
:1003C0000060006930F4807014F5006210610698D6
:1003D000012812D1DFF8880B14F50062106314F5C0
:1003E0000060006B40F4803050F0030014F50062B0
:1003F000106314F50060006B01000020A0617FF025
:10040000804060610698002803D1A06950F0100078
:10041000A061A269DFF84C0B0243A2610998002891
:1004200003D0A06950F00800A0610D98012805D103
:10043000A06940F0804050F00400A061002030BC72
:100440005DF810FB02000023880150F020001061CD
:100450005B1CDFF8140B834201D3032003E0106917
:100460008006F5D4002070470100002210200861AA
:10047000521CDFF8F40A824201D3032003E008692A
:10048000C006F5D400207047020012F50060036832
:100490000800C0B2034312F50060036000207047FB
:1004A0000100002011F50062926812F0060F02D1DF
:1004B0000022100019E011F50062926812F00602A5
:1004C000022A06D011F50062926812F00602062A8E
:1004D00002D10322100008E011F50062926812F0C8
:1004E0000602042A01D102221000C0B2704730B4C3
:1004F0000200487801282DD112F50060C36901245B
:1005000008788440A4B2234312F50060C3610878E0
:1005100012EB401010F510600068000444D4087815
:1005200012EB401010F510600B7812EB431313F52B
:1005300010631B688C686405640DCD7854EA8544AB
:100540000D7854EA855444F0805454F40044234315
:10055000036029E012F50060C36901240878844033
:1005600053EA044312F50060C361087812EB4010AF
:1005700010F530600068000416D4087812EB4010C3
:1005800010F530600B7812EB431313F530631B68E2
:100590008C686405640DCD7854EA854444F0805439
:1005A00054F4004423430360002030BC704770B50E
:1005B00004000D000026687801283CD1287814EB4F
:1005C000401010F51060297814EB411111F51061FD
:1005D000096831F400410160287814EB401010F5EF
:1005E00010605FF000610160287814EB401010F596
:1005F00010605FF080410160761CDFF86C09864274
:1006000001D3032058E0287814EB401010F5106057
:1006100080684000F0D410212000FFF713FF14F58C
:100620000060C16901222878824092B2914314F59A
:100630000060C1613FE0287814EB401010F5306095
:10064000297814EB411111F53061096831F400414A
:100650000160287814EB401010F530605FF0006105
:100660000160287814EB401010F530605FF0804195
:100670000160761CDFF8F008864201D303201BE0FE
:10068000287814EB401010F530608068C006F0D474
:1006900014F50060406850F4806014F50061486013
:1006A00014F50060C16901222878824031EA0241D4
:1006B00014F50060C161002070BDF8B504000D00A4
:1006C000160000276878012840F0EF80686900284C
:1006D0002AD1287814EB401010F51060297814EB1B
:1006E000411111F5106109696FF3DC41016128784E
:1006F00014EB401010F51060297814EB411111F53E
:100700001061096951F400210161287814EB40104F
:1007100010F51060297814EB411111F51061096989
:10072000C90CC904016162E0287814EB401010F58F
:100730001060297814EB411111F510610969C90C99
:10074000C9040161287814EB401010F51060297875
:1007500014EB411111F5106109696FF3DC4101617E
:10076000287814EB401111F51061287814EB401033
:1007700010F5106002696B69A868C3185B1EA86851
:10078000B3FBF0F0DFF8E43713EAC0431A430A6121
:10079000287814EB401010F51060297814EB411103
:1007A00011F5106109696A695203520B1143016125
:1007B000E87801281BD1287814EB401010F5106060
:1007C000297814EB411111F51061096931F0C0412C
:1007D0000161287814EB401010F51060297814EBB3
:1007E000411111F51061096951F0005101613000AA
:1007F000C0B2012807D1287814EB401010F5106022
:10080000296941610FE0E87801280CD06869002867
:1008100009D014F50060416B012228788240114311
:1008200014F500604163E878012821D114F50060D7
:100830008068C0050ED4287814EB401010F51060C5
:10084000297814EB411111F51061096851F000513C
:1008500001600DE0287814EB401010F51060297845
:1008600014EB411111F51061096851F080510160DC
:10087000287814EB401010F51060297814EB411122
:1008800011F51061096851F004410160E878012810
:1008900040F0B5803000C0B200906B699BB22A78FE
:1008A000E968200000F0A7F9A9E0287814EB4010CF
:1008B00010F53060297814EB411111F530610969A8
:1008C000C90CC9040161287814EB401010F53060A0
:1008D000297814EB411111F5306109696FF3DC419E
:1008E0000161686900281ED1287814EB401010F5CA
:1008F0003060297814EB411111F530610969AA685B
:100900005203520B11430161287814EB401010F58B
:100910003060297814EB411111F53061096951F407
:10092000002101612DE06969A8684118491EA86885
:10093000B1FBF0F00700287814EB401010F53060A0
:10094000297814EB411111F5306109693A0092B22E
:10095000DFF8183613EAC24319430161287814EB13
:10096000401111F53061287814EB401010F530601B
:100970000269AB68380080B243435B035B0B1A43E8
:100980000A613000C0B2012806D1287814EB40106B
:1009900010F53060E9684161E878012821D114F54B
:1009A00000608068C0050ED4287814EB401010F564
:1009B0003060297814EB411111F53061096851F06C
:1009C000005101600DE0287814EB401010F5306004
:1009D000297814EB411111F53061096851F080510B
:1009E0000160287814EB401010F53060297814EB82
:1009F000411111F53061096851F004410160002096
:100A0000F2BD0000BFFFBDFF30B4030048780128ED
:100A100040F09680486900282AD1087813EB4010EE
:100A200010F510600C7813EB441414F5106424696D
:100A30006FF3DC440461087813EB401010F510608C
:100A40000C7813EB441414F51064246954F4002456
:100A50000461087813EB401010F510600C7813EB6C
:100A6000441414F510642469E40CE40404613FE0C8
:100A7000087813EB401010F510600C7813EB441459
:100A800014F510642469E40CE4040461087813EBA1
:100A9000401010F510600C7813EB441414F510643A
:100AA00024696FF3DC44046188684C69A04201D278
:100AB00088684861087813EB401010F510600C78D6
:100AC00013EB441414F51064246954F400240461F5
:100AD000087813EB401010F510600C7813EB4414F9
:100AE00014F5106424694D696D036D0B2C4304618A
:100AF000087813EB401010F510600C7813EB4414D9
:100B000014F51064246854F0044404601000C0B26A
:100B1000012807D1087813EB401010F510600C691C
:100B2000446165E04869002862D013F50060446BB9
:100B30000125087885402C4313F50060446357E095
:100B4000087813EB401010F530600C7813EB441468
:100B500014F530642469E40CE4040461087813EBB0
:100B6000401010F530600C7813EB441414F5306429
:100B700024696FF3DC4404614869002801D0886867
:100B80004861087813EB401010F530600C7813EBD7
:100B9000441414F53064246954F400240461087882
:100BA00013EB401010F530600C7813EB441414F57F
:100BB000306424698D686D036D0B2C430461100053
:100BC000C0B2012806D1087813EB401010F5306050
:100BD000CC684461087813EB401010F530600C7855
:100BE00013EB441414F53064246854F00444046096
:100BF000002030BC7047F0B50500059C002600279A
:100C00002000C0B2002818D1180080B2C01C800893
:100C1000060000200700B7420FD2D1F800C0964668
:100C20005FFA8EFE4FF4805000FB0E5E1EF5805E74
:100C3000CEF800C07F1C091DEDE70020F0BD30B4E8
:100C4000030000201500ADB2ED1CAD080024AC423D
:100C500006D213F5805000680860641C091DF6E791
:100C6000080030BC704702004878012824D1087879
:100C700012EB401010F51060006800280DD40878C1
:100C800012EB401010F510600B7812EB431313F5C4
:100C900010631B6833F080430360087812EB401048
:100CA00010F510600B7812EB431313F510631B68FB
:100CB00053F40013036023E0087812EB401010F5A2
:100CC0003060006800280DD4087812EB401010F551
:100CD00030600B7812EB431313F530631B6833F06D
:100CE00080430360087812EB401010F530600B78F9
:100CF00012EB431313F530631B6853F400130360C6
:100D00000020704702004878012822D1087812EBB1
:100D1000401010F510600B7812EB431313F51063BD
:100D20001B6833F400130360C878032802D0C87826
:100D3000022830D1087812EB401010F510600B78C3
:100D400012EB431313F510631B6853F080530360D9
:100D500021E0087812EB401010F530600B7812EBB0
:100D6000431313F530631B6833F400130360C87832
:100D7000032802D0C87802280DD1087812EB401061
:100D800010F530600B7812EB431313F530631B68DA
:100D900053F08053036000207047020012F500609A
:100DA000006830F4FE6012F50063186012F5006010
:100DB00000680B00DBB21B0113F4FE63184312F54D
:100DC000006318600020704710B5040014F500603F
:100DD000406830F0020014F500614860032000F024
:100DE000C7F8002010BD10B5040014F5006040687D
:100DF00050F0020014F500614860032000F0B8F8DC
:100E0000002010BD0200002350699169084070471E
:100E1000020012F50060806912F50061C96908409E
:100E2000000C7047020012F50060806912F5006145
:100E3000C969084080B2704703000800C0B213EBD4
:100E4000401010F53060806813F500625269104060
:100E5000704710B4020012F50060036912F50060DB
:100E6000446B2000C840C00110F08000034308001C
:100E7000C0B212EB401010F510608068184010BC32
:100E80007047406910F001007047010011F51060D3
:100E90000068C00AC00211F51062106011F5006010
:100EA000806810F00600042807D111F51060006872
:100EB00050F0030011F51062106011F500604068F9
:100EC00050F4807011F5006250600020704710B43B
:100ED0000300002013F53064206113F530600069D1
:100EE00050F4002013F53064206113F53060006980
:100EF00050F0180013F53064206113F5306000697C
:100F000050F0C04013F5306420610800C0B20128E1
:100F100007D113F5306042615FF0802013F5306433
:100F20002060002010BC704710B401000022521C49
:100F30000D48824201D3032010E00B69002BF6D547
:100F400000230C6954F001040C615B1C834201D343
:100F5000032003E00A69D207F7D4002010BC7047D1
:100F60000001800000383C80410D03000000F81FA4
:100F700070B5040000F010F80500260016F1010F0E
:100F800002D004480078361800F006F8401BB04242
:100F9000FAD370BDCF01002001480068704700BF40
:100FA000241200202DE9F84305000E00F02000F087
:100FB00093FD0400002C01D103201DE05FF0F00838
:100FC0005FF0000927004A464146380000F024FE41
:100FD000D5F80C73396920003A689047002808D08A
:100FE000D5F8080300F04BFE0020C5F808030320E5
:100FF00002E0C5F808430020BDE8F2832DE9F04186
:1010000004000D00D4F808630127022F17DA5FF0FF
:101010000C0808FB07F0304490F8750000280CD04D
:1010200057F08001C9B2200000F047FF002008FB04
:1010300007F806EB080181F875007F1CE5E75FF013
:101040000108B8F1020F17DA0C2707FB08F030444B
:1010500090F88D0000280CD040460100C9B2200055
:1010600000F02BFF002007FB08F706EB070181F8D3
:101070008D0018F10108E4E70020BDE8F0812DE9BA
:10108000F84F04000D001600D4F808732900C9B207
:101090005C20414307EB010010F1140898F80400AC
:1010A00000060AD598F8041011F00F010C204143F6
:1010B00007EB010010F1700907E098F804100C200C
:1010C000414307EB010010F188093000C0B200284D
:1010D00036D198F80200002827D099F8050000289A
:1010E00008D0D9F800000178200000F0E6FE0020CA
:1010F00089F8050098F83C00002816D098F84010B0
:1011000011F00F010C20414307EB010070308146C4
:1011100099F80500002808D0D9F8000001782000CF
:1011200000F0CBFE002089F80500D8F858103000F8
:10113000C0B2D8F850209047002088F8020099E00B
:1011400018F10400C9F80000D8F858103000C0B2F7
:10115000D8F85020904788F80260D9F80000406B1A
:10116000D9F8001089698847A9F80600B9F806304F
:101170000122D9F800000178200000F08DFE012046
:1011800089F80500D9F8000010F10C01D9F8000029
:10119000406BD9F8002052699047D9F80010886058
:1011A000D9F80000007800061AD5D9F800000178B7
:1011B000200000F0B0FEDFF80C090068000A80048F
:1011C000800CA9F80800D9F800008389D9F800003C
:1011D0008268D9F800000178200000F0E3FE49E0C1
:1011E000B9F80630D9F800008268D9F80000017813
:1011F000200000F0E7FE98F83C0000283AD098F86C
:10120000401011F00F010C20414307EB010070303A
:10121000814618F1400AC9F800A00320A9F8060089
:10122000012089F80400B9F8063001229AF800106C
:10123000200000F031FE012089F80500DAF80800EE
:10124000DAF80410884783461AF10101584600F085
:1012500014F8DFF870080068000A8004800CA9F810
:101260000800B9F806301AF101029AF800102000BF
:1012700000F098FE0020BDE8F28F020050033E30DF
:101280007D23B0FBF3F31800800808701800800A73
:1012900048701800800C8870002070472DE9F047D6
:1012A00004000D000027D4F80883287810F06000AF
:1012B000002828D0202840F0A880287810F00300CB
:1012C000012811D16878401E02D08038032804D844
:1012D0002900200000F09CFA14E02900200001F011
:1012E000AAFA032007000DE06878012804D129003C
:1012F000200000F03BFB05E02900200001F09BFAF4
:101300000320070081E06878062804D00A281CD052
:101310000B283ED073E0688880B2000A80B2212892
:1013200012D1DFF8A407006812300600E8880A2806
:1013300002DB5FF0090901E0B5F806904A4692B277
:101340003100200001F0B4FA5FE05FF0000A98F885
:101350000100824516DA5C20A98800FB0AF24244AB
:10136000127DC9B291420AD1012200FB0AF0404429
:1013700010F11601200001F09BFA002047E01AF15D
:10138000010AE4E72900200001F055FA03200700D4
:101390003BE05FF0000A98F8010082451EDA5C200D
:1013A000A98800FB0AF24244127DC9B2914212D1CF
:1013B000698800FB0AF04044807DC9B2814201D1B6
:1013C000002024E06A88D2B250460100C9B2200051
:1013D000FFF755FE1BE01AF1010ADCE7A888C0B24E
:1013E000002805D16888C0B2002801D100200EE095
:1013F0002900200001F01FFA0320070005E0290062
:10140000200001F018FA032007003800C0B2BDE840
:10141000F0870100DFF8B40600880880DFF8A8062E
:10142000006870472DE9F04104000D00D4F808135E
:101430002A00D2B212F07F020C20424301EB0200DC
:1014400010F17006707900283FD0307900281BD148
:10145000306810F10C013068406B32685269904777
:1014600031688860DFF85C060068000A8004800C40
:101470003081306883893068826855F08001C9B254
:10148000200000F08FFD22E0307901281FD1D6F82E
:101490000080D8F80800D8F804108847070018F131
:1014A00001013800FFF7E9FEDFF818060068000ABE
:1014B0008004800C3081032318F1010255F0800173
:1014C000C9B2200000F06EFD01E001F002FB002037
:1014D000BDE8F0812DE9F84F0400D4F8086396F8D0
:1014E000EE00002801D10020B9E096F8A400012800
:1014F00040D1D6F8A0707878062838D1B6F8EC90AC
:101500005FEA19295FFA89F9D7F80880484680B25E
:10151000012802D002280FD026E0D8F804000028C5
:1015200009D0FA6896F8A510B6F8EC00C0B280B2FF
:10153000D8F80430984719E096F8EE00012810D149
:10154000D8F8080000280BD016F1A5000500FA68AD
:101550002988B6F8EC00C0B280B2D8F808309847B5
:1015600001E001F0B6FA01E001F0B3FA76E001F033
:10157000B0FA73E0D6F8A070B6F8EC805FEA1828ED
:101580005FFA88F8404680B2012865D196F8EE00EF
:1015900001285ED1786A00285AD000208DF800001A
:1015A0007A6B694696F8A73096F8A600000250EAD2
:1015B000034096F8A53018437B6A98475FF000090E
:1015C0007078814544DA5FF05C0A0AFB09F0304428
:1015D0001830874239D10AFB09F0304490F85000A6
:1015E000002811D00AFB09F03044C06D0AFB09F154
:1015F0003144896D884783460AFB09F0304410F175
:1016000055015846FFF739FE9DF8000000281BD011
:101610000AFB09F03044807D002815D00AFB09FA46
:1016200006EB0A0090F816A0002248460100C9B255
:101630002000FFF724FD50460200D2B248460100C8
:10164000C9B22000FFF71BFD02E019F10109B7E75D
:1016500004E001F03EFA01E001F03BFA0020BDE8B1
:10166000F28F01000020704770B50400D4F80853D1
:1016700000266878864217DA5C2101FB06F02844D0
:10168000807D00280ED001FB06F02844006E002863
:1016900008D001FB06F02844C06E01FB06F1294486
:1016A000096E8847761CE4E7002070BD2DE9F047FD
:1016B00004000D00D4F808835FF00109B9F1020FAE
:1016C0006EDA0C2000FB09F0404470300600DFF8B1
:1016D000F4A3DAF80000000A8004800C0700707997
:1016E00000285AD0DFF8E80319F07F0110EB411110
:1016F0000968002951D5390089B211F0010119F0AA
:101700007F0210EB42121268C2F30042914207D0EE
:1017100039003289921C5205520D89B291423CD156
:1017200059F080010D002900C9B209060FD5290022
:10173000C9B211F07F0110EB4111096851F09041DD
:101740002A00D2B212F07F0210EB42100160290091
:10175000C9B2200000F0DFFBDAF80000000A8004C4
:10176000800C30813079012808D1F3883068421C20
:101770002900C9B2200000F015FC0EE030790028E5
:1017800009D130688389306882682900C9B2200095
:1017900000F008FC01E001F09CF919F101098DE766
:1017A0000020BDE8F087020000207047F8B5040073
:1017B0000E00D4F808133200D2B20C20424301EBE1
:1017C000020010F18807787900281DD03100C9B2D5
:1017D000200000F007FCADF800003868416BBDF850
:1017E00000003A681269904769463868406B3A6869
:1017F000526990470500BDF800302A003100C9B297
:10180000200000F0DFFB01E001F063F90020F2BDF1
:101810002DE9F84F05000E0000240027D5F80883B5
:10182000002088F8EE00B6F804905FEA192900203D
:1018300098F8001088420DDA4946020142441279B4
:10184000C9B2914204D101014144091D0C0001E0DB
:10185000401CEDE7002C05D13100280000F0EBFF23
:10186000032081E0B6F802A05FEA1A2AA088C0B27D
:1018700010EA0A0F05D13100280000F0DCFF032038
:1018800072E07078000615D47088A8F8EC00C8F8EB
:10189000A040012088F8A400F088C8F8E80070781B
:1018A00088F8EE00F28818F1A501280001F023F86D
:1018B000002059E06078062853D1D4F808B050468B
:1018C000C0B2012802D0022817D047E0002088F8D3
:1018D000A500DBF80000002808D0E26818F1A50197
:1018E0007088C0B280B2DBF800309847012218F14E
:1018F000A501280000F0DCFF32E018F1A500070088
:101900007078812806D021D3832817D012D3842859
:1019100018D01BE000200700DBF80C00002808D0DE
:10192000E26818F1A5017088C0B280B2DBF80C3013
:1019300098470DE01BF11200070009E01BF11000B1
:10194000070005E01BF11400070001E001F0C1F8F9
:1019500002223900280000F0ABFF01E001F0B9F8E5
:1019600001E001F0B6F80020BDE8F28F2DE9F84360
:1019700005000E000024D5F80873B6F80480002096
:101980007978884210DA5C21424601FB00F33B443F
:101990001B7ED2B29A4205D101FB00F139441831C5
:1019A0000C0001E0401CEBE7002C05D131002800C1
:1019B00000F041FF03206FE0B6F802905FEA1929BA
:1019C000A088C0B210EA090F05D13100280000F04C
:1019D00032FF032060E07078000615D47088A7F805
:1019E000EC00C7F8A040022087F8A400F088C7F8F0
:1019F000E800707887F8EE00F28817F1A50128005A
:101A000000F079FF002047E04846C0B201283AD1F3
:101A10007078812804D030D3832822D015D32CE0CD
:101A200000200090206A002803D0616B6846226A7B
:101A30009047009887F8A5000098000A87F8A6004C
:101A40000098000C87F8A7001FE0E06A87F8A5005F
:101A5000E06A000A87F8A600E06A000C87F8A70091
:101A600013E0A06A87F8A500A06A000A87F8A6001C
:101A7000A06A000C87F8A70007E03100280000F0FA
:101A8000DAFE032008E001F024F8032217F1A50193
:101A9000280000F00DFF0020BDE8F28301000A20BD
:101AA00008800C48704738B505000C00002C06D0A3
:101AB000C5F80C43226905490348A36898470020EC
:101AC00032BD000008080050281200203412002007
:101AD00000090050C800002010B50446AFF3008094
:101AE000204600F005F80446AFF30080204610BD04
:101AF00070B500F10F06F608F600B04240D2082E8D
:101B000004D2082602E0083000F047F8DFF804515C
:101B10002C68210005D1002007E00268B24221D2E2
:101B2000011D08680028F8D12068291D0A68824232
:101B300022D01368B34238BF111DF7D312E09319B6
:101B40000B60801B54685C600B6818601660096845
:101B500000291DBF48680028081D0020286002F1E8
:101B6000080070BD61B10A681068A0F10803B342B3
:101B7000E5D250680860EAE700F0C4FF0028C2D14F
:101B8000002070BD10B5040006D0AFF300802046E1
:101B900000F003F8AFF3008010BD002800D17047BB
:101BA00070B4A0F108021368072B2BD913F0070FAC
:101BB00028D1184C616809B18A4202D25160626032
:101BC00013E0486800B3904238BF0146F9D31BE0E8
:101BD000964203D11B180B600A4606E0486810B114
:101BE000134498420ED350604A60506850B1136855
:101BF000D518854206D1002626600168CB181360EF
:101C00004068506070BC704708680E18B242DFD25E
:101C100070BC70470812002062F30F2262F31F426B
:101C2000401810F0030308D0C91A1FD3DB0748BFC0
:101C300000F8012D28BF20F8022D130030B41446FF
:101C40001546103928BF20E93C00FAD8490728BFBB
:101C500020E90C0048BF40F8042D890028BF20F877
:101C6000022D48BF00F8012D30BC7047C91818BFBD
:101C700000F8012DCB0728BF00F8012D7047FFF7B2
:101C800081BFF0B40246106895681318506803EBE2
:101C90005004C0071DD54D441BE013F8017B05F827
:101CA000017B491EF9D1A0B1B60813F8011B06F05B
:101CB0000306032E08BF13F8016B01EB062149420E
:101CC000801C294405D011F8016B05F8016B401EFA
:101CD000F9D1A3420ED013F8016B16F0030104BF33
:101CE00013F8011BC91C30090F28DAD113F8010BB6
:101CF0000F30D6E7F0BC02F10C007047010049B28A
:101D000000290AD4012210F01F018A40DFF8C41311
:101D100003005BB25B0941F82320704710B5040053
:101D2000DFF8B403016851F020710160DFF8AC0303
:101D3000016851F42A210160DFF8A403016851F021
:101D400070710160DFF89C03016851F0800101604F
:101D500000220321432000F04EFF4320FFF7CEFF77
:101D600010BD10B5040014F56F71D4F8F80300F03D
:101D7000C6FF10BD38B504000D002900C9B21C20F3
:101D8000414304EB0100D0F804222900C9B2D4F881
:101D9000F80300F0E9FF31BD38B504000D0029005B
:101DA000C9B21C20414304EB0100426C2900C9B2B6
:101DB000D4F8F80301F020F831BD10B50400D4F8D0
:101DC000F80301F0C3F810BD38B504000125D4F8BC
:101DD000F80301F083F82900C9B2D4F8F80301F040
:101DE000A0F831BD10B50400D4F8F80301F09DF857
:101DF00010BD10B50400D4F8F80301F0A0F810BD30
:101E000038B504000D002900C9B2D4F8F80301F078
:101E1000C4F831BD38B504000D002900C9B2D4F8AA
:101E2000F80301F0A5F831BD10B50400D4F8F803AB
:101E300001F0C8F810BD10B50400D4F8F80301F0A3
:101E4000C4F810BD10B50400A7485FF0A0410160C0
:101E500005214160002101634021416100210161B0
:101E600000210162022181610121C1610221C16061
:101E70000021C16200214162C0F8F843C4F8100398
:101E800001F0B1F8002010BD10B50400D4F8100323
:101E900001F03EF9002010BDF8B504000D00160059
:101EA0001F003300DBB23A0092B22900C9B2D4F865
:101EB000100301F00CFC0020F2BD38B504000D0049
:101EC0002900C9B2D4F8100301F054FC2800C0B2B4
:101ED000000611D585492800C0B210F07F0011EB33
:101EE00040100268824802402800C0B210F07F0013
:101EF00011EB40110A600CE07E492800C0B211EBE2
:101F0000401002687C4802402800C0B211EB40112A
:101F10000A60002032BD38B504000D002900C9B2A6
:101F2000D4F8100301F045FD002032BD38B504009F
:101F30000D002900C9B2D4F8100301F0C6FC00203E
:101F400032BD38B504000D002900C9B2D4F8100321
:101F500001F0FAFC002032BD0200D2F81033080074
:101F6000C0B2000609D5C9B211F07F011C2041435F
:101F700003EB010090F83A0008E0C9B211F07F01CC
:101F80001C20414303EB010090F8FA01704738B57B
:101F900004000D002900C9B2D4F8100301F081FB40
:101FA000002032BDF8B504000D0016001F003B00F4
:101FB0009BB232002900C9B2D4F8100301F04FFCE3
:101FC0000020F2BDF8B504000D0016001F003B0014
:101FD0009BB232002900C9B2D4F8100301F0FFFB14
:101FE0000020F2BD38B504000D002900C9B2D4F8B4
:101FF000100301F02AFC32BD2DE9FE4368460021A2
:102000000022002380E80E0000275FF000085FF048
:102010000009C2240125002001F070FDC01C04212C
:1020200090FBF1F6ADF8006001212800C0B28842B3
:102030000CDB684630F81120102A02DA102220F852
:10204000112030F811008619491CEEE71B342000DE
:1020500080B210FA86F040F24111884203D2D6F5E0
:10206000A070040001E000F033FD1F4F210089B291
:10207000380001F000FE5FF000082800C0B24045C3
:102080000BDB684630F8182040460100C9B2380022
:1020900001F0BAFD18F10108EFE70020BDE8FE836A
:1020A00038B504002000C0B2012802D1FFF7A4FF18
:1020B0000EE00D4D8021280001F0DDFD40220021C1
:1020C000280001F0A1FD80220121280001F09CFDE3
:1020D00031BD000000E100E00000024024000240A9
:1020E0000800024034380240140800200009005063
:1020F000007833FC000B00500078FFFF70B504003F
:102100000D000026287810F0600000280AD0202852
:1021100001D040283ED129002000D4F80423926841
:1021200090473BE06878002820D0012828D0032879
:1021300021D005280BD0062804D0082811D0092862
:102140000AD022E02900200000F0A0F921E02900B7
:10215000200000F04DFA1CE02900200000F07CFA7D
:1021600017E02900200000F0E1FA12E02900200029
:1021700000F003FB0DE02900200000F024FB08E044
:102180002900200000F02CFB03E02900200000F0D3
:1021900052FB03E02900200000F04DFB3000C0B2EC
:1021A00070BD70B504000D000026287810F06000A6
:1021B000002803D0202801D0402823D194F8EC0235
:1021C000401E022819D82879022811DA2900200097
:1021D000D4F80423926890470600E88800280BD1C1
:1021E0003000C0B2002807D1200000F0A9FB03E0B6
:1021F0002900200000F01FFB03E02900200000F070
:102200001AFB03E02900200000F015FB002070BD40
:102210002DE9F04104000D000026AF88287810F069
:10222000600000280BD0202802D0402840F02681F2
:1022300029002000D4F804239268904722E12878EE
:1022400010F06000202807D129002000D4F80423D2
:1022500092689047C0B217E16878002870D00128D2
:102260003CD0032840F0058194F8EC02022802D00B
:10227000032817D02DE03800C0B200280DD0380058
:10228000C0B2802809D03900C9B22000FFF74EFE45
:1022900080212000FFF74AFE03E02900200000F023
:1022A000CAFA1AE0688800280FD13800C0B20028A6
:1022B0000BD03800C0B2802807D0E888002804D1AD
:1022C0003900C9B22000FFF731FE200000F038FBD2
:1022D00003E02900200000F0AEFACEE094F8EC0212
:1022E000022802D0032817D025E03800C0B2002809
:1022F0000DD03800C0B2802809D03900C9B2200002
:10230000FFF714FE80212000FFF710FE03E02900F4
:10231000200000F090FA12E0688800280AD117F037
:102320007F0F04D03900C9B22000FFF70AFE200059
:1023300000F006FB03E02900200000F07CFA9CE09E
:1023400094F8EC02022802D003282FD08CE0380049
:10235000C0B2002808D03800C0B2802804D02900BC
:10236000200000F068FA83E03800C0B200060AD509
:102370003900C9B211F07F011820414304EB01007C
:1023800010F1140809E03900C9B211F07F011820DA
:10239000414304EB010010F5BE780020C8F80000AE
:1023A00002224146200000F083FA61E03800C0B20A
:1023B00000060FD53900C9B211F00F0118204143B2
:1023C00004EB01008069002815D12900200000F0ED
:1023D00032FA4DE03900C9B211F00F011820414323
:1023E00004EB0100D0F88001002804D1290020006E
:1023F00000F021FA3CE03800C0B200060AD53900EE
:10240000C9B211F07F011820414304EB010010F123
:10241000140809E03900C9B211F07F0118204143C6
:1024200004EB010010F5BE783800C0B2002803D0DC
:102430003800C0B2802803D10020C8F800000DE0A9
:102440003900C9B22000FFF787FD002803D0012022
:10245000C8F8000002E00020C8F80000022241464F
:10246000200000F025FA03E02900200000F0E3F945
:1024700003E02900200000F0DEF903E0290020003D
:1024800000F0D9F93000C0B2BDE8F0817CB504009D
:102490000D00688880B2000AC0B2012808D0022866
:1024A0000ED0032821D0062861D007286ED07EE008
:1024B0006946207CD4F800231268904706007BE030
:1024C000207C002808D16846D4F80413896A88471C
:1024D00006000220707007E06846D4F80413C96A49
:1024E000884706000220707066E0A878002808D0AF
:1024F000022816D00DD3042823D01AD3052828D0BB
:102500002FE06946207CD4F80023526890470600EB
:102510002CE06946207CD4F800239268904706009E
:1025200024E06946207CD4F80023D2689047060056
:102530001CE06946207CD4F800231269904706000D
:1025400014E06946207CD4F80023526990470600C5
:102550000CE06946207CD4F800239269904706007D
:1025600004E02900200000F066F940E024E0207C2F
:10257000002806D16846D4F80413496B8847060042
:102580001AE02900200000F056F930E0207C0028F5
:1025900008D16846D4F80413096B88470600072061
:1025A000707009E02900200000F045F91FE02900C3
:1025B000200000F040F91AE0BDF80000002810D01B
:1025C000E88800280DD0BDF80000E988884202D3D1
:1025D000E888ADF80000BDF800203100200000F0D0
:1025E00067F9E888002802D1200000F0A9F973BD3E
:1025F00070B504000D00A888002828D1E8880028BC
:1026000025D16888802822D2A87810F07F000600A3
:1026100094F8EC02032804D12900200000F00BF903
:1026200019E084F8EE623100C9B22000FFF7AFFC78
:10263000200000F085F93000C0B2002803D002204D
:1026400084F8EC0207E0012084F8EC0203E02900A2
:10265000200000F0F0F870BD70B504000D00324E9F
:10266000688830703078022804DB2900200000F0F0
:10267000E2F857E094F8EC02022802D003281BD0BD
:1026800048E03078002813D030786060032084F868
:10269000EC023178200000F010FB032804D129005F
:1026A000200000F0C8F83DE0200000F049F902E009
:1026B000200000F045F935E0307800280CD10220E8
:1026C00084F8EC02307860603178200000F00BFB79
:1026D000200000F035F91CE030786168884215D0A0
:1026E0006168C9B2200000F0FEFA3078606031788D
:1026F000200000F0E2FA032804D12900200000F0B5
:102700009AF80FE0200000F01BF902E0200000F032
:1027100017F907E02900200000F08DF8317820003B
:1027200000F0E1FA70BD00003912002038B5040055
:102730000D00E888012804D02900200000F07BF873
:102740001AE094F8EC02401E012802D9801E09D03C
:102750000EE00020A060012214F10801200000F02A
:10276000A7F809E00122211D200000F0A1F803E0F4
:102770002900200000F05FF831BD38B504000D00DD
:1027800094F8EC02401E022818D8E888022804D0E9
:102790002900200000F04FF814E00020E060D4F899
:1027A000F402002803D0E06850F00200E06002224A
:1027B00014F10C01200000F07BF803E02900200058
:1027C00000F039F831BD38B504000D0068880128E3
:1027D00005D10120C4F8F402200000F0B1F831BDA9
:1027E00038B504000D0094F8EC02401E022809D808
:1027F0006888012805D10020C4F8F402200000F008
:102800009FF803E02900200000F015F831BD0A7898
:1028100002704A7842708A78CB781B029A184280FC
:102820000A794B791B029A1882808A79CB791B022C
:102830009A18C280704738B504000D00802120002E
:10284000FFF774FB00212000FFF770FB31BDF8B5E6
:1028500004000D0016000027002C1ED0200000F000
:102860001DF84000801C308030783900C9B26854AF
:102870007F1C03203900C9B268547F1C20780028CF
:102880000BD020783900C9B26854641C7F1C00202A
:102890003900C9B268547F1CF0E7F1BD0200002086
:1028A0001178002902D0401C521CF9E7C0B27047D1
:1028B00070B504000D0016000220C4F8E4023000D8
:1028C00080B2E061300080B2206233009BB22A0007
:1028D00000212000FFF766FB002070BD70B50400EA
:1028E0000D00160033009BB22A0000212000FFF7E4
:1028F00059FB002070BD70B504000D0016000320C8
:10290000C4F8E402300080B2C4F88401300080B220
:10291000C4F8880133009BB22A0000212000FFF791
:1029200051FB002070BD70B504000D00160033008F
:102930009BB22A0000212000FFF744FB002070BD5D
:1029400010B504000420C4F8E40200230022002192
:102950002000FFF727FB002010BD10B50400052064
:10296000C4F8E4020023002200212000FFF72AFB24
:10297000002010BD10B410F00703434C22684FF63E
:10298000FF010A40414951EA03210A43226010BC79
:10299000704780B500F005F830BF3D4800688047BB
:1029A000FAE710B50320FFF7E5FF002001F080F9FA
:1029B00040F20570374908603748016851F48031AA
:1029C000016001688903FCD53449354A11603549F5
:1029D0004FF414420A60026852F08072026002688A
:1029E0009201FCD5086850F002000860086810F0F9
:1029F0000C000828FAD12C48016851F00F01016041
:102A0000016811F00F010F29FAD12848016851F02F
:102A10001001016026490A68264802430A602648D8
:102A2000016851F4803101602448016851F4823119
:102A300001600168C903FCD501F060F92048046811
:102A4000240A14F001042000C0B2012807D101F0CB
:102A500043FA01F0DFFD1B480D4908600FE01A48FA
:102A60000B49086001F02AFF012808D117480068C7
:102A7000400701D401F039FF402001F0EEFF2000B3
:102A8000C0B201F065FF10BD0CED00E00000FA05DA
:102A90001C120020003C024000380240085440272D
:102AA0000438024008380240303802400C0C024022
:102AB0000C080240540100540C0002400C04024077
:102AC00010040240AF3C000871650008100C024081
:102AD000704780B5FFF7FCFF01BD30B40300002054
:102AE000002422000D00D2B2EDB2AA4208D2220088
:102AF000D2B29D5CE4B2E20095402843641CF0E74A
:102B000030BC70470749086808B100207047064884
:102B1000C008C00008600549C908C900091A016059
:102B2000704700BF2C120020471A002040BA002036
:102B3000DFF808010068C0F302207047010049B2C5
:102B4000002909D4012210F01F018A403C490300EA
:102B50005BB25B0941F82320704710B4020052B207
:102B6000002A05D40A01374B040064B21A5508E064
:102B70000A01354B040064B214F00F04234403F837
:102B8000042C10BC704770B4030013F00704D4F198
:102B90000700052801D3042001E0D4F10700251D1A
:102BA000072D01D2002500E0E51E012616FA00F0EF
:102BB000401E0140A94016FA05F56D1E2A4011433A
:102BC000080070BC704710B50400601EB0F1807F33
:102BD00001D301200EE0601E1C4908600F215FF048
:102BE000FF30FFF7BAFF0020194908600720194994
:102BF0000860002010BD2DE9F04104000D00160012
:102C00000027FFF795FF8046320029004046FFF776
:102C1000BAFF0100200040B2FFF79FFFBDE8F0813E
:102C200010B50400200040B2FFF788FF10BD10B5BA
:102C300004002000FFF7C7FF10BD00000CED00E00E
:102C400000E100E000E400E018ED00E014E000E046
:102C500018E000E010E000E070B505000C00160080
:102C6000002D01D1032012E0D5F80403002802D082
:102C70000020C5F80403002C01D0C5F80043012052
:102C800085F8EC022E702800FFF7DCF8002070BDFC
:102C900002000023002903D0C2F80413002000E042
:102CA0000320C0B2704710B504002000FFF7ECF815
:102CB000002010BD01000020704770B504000D0019
:102CC0000326D4F8040300280AD02900C9B2200042
:102CD000D4F8042312689047002801D10020060090
:102CE0003000C0B270BD38B504000D002900C9B273
:102CF0002000D4F8042352689047002032BD38B534
:102D000004000D00290014F53E70FFF780FD01203E
:102D1000C4F8E402B4F8FE02C4F8E80294F8F80239
:102D200010F01F00C0B2002803D002280DD006D337
:102D300011E014F53E712000FFF7E0F912E014F500
:102D40003E712000FFF72DFA0CE014F53E712000D3
:102D5000FFF75EFA06E094F8F81211F08001200007
:102D6000FFF7E4F8002032BDF8B504000F001500AD
:102D70003800C0B200282DD114F5BE700600D4F87A
:102D8000E402032836D13069F168884210D2F16834
:102D90003069091AF160F0683169884201D2F2683D
:102DA00000E0326992B229002000FFF7BCFD21E06B
:102DB000D4F804030069002808D094F8EC02032832
:102DC00004D12000D4F80413096988472000FFF7D4
:102DD000B7FD0FE0D4F80403806900280AD094F806
:102DE000EC02032806D13900C9B22000D4F804232C
:102DF000926990470020F2BDF8B504000D0016005E
:102E00002800C0B2002857D114F114000700D4F8EC
:102E1000E402022845D13869F968884210D2F9687D
:102E20003869091AF960FA6892B231002000FFF798
:102E300055FD0023002200212000FFF7C3F830E0F9
:102E4000B8683969B0FBF1F201FB1200002817D114
:102E5000B8683969884213D3B868D4F8E812884250
:102E60000ED2002200212000FFF738FD0020C4F818
:102E7000E8020023002200212000FFF7A3F810E061
:102E8000D4F80403C068002808D094F8EC020328A2
:102E900004D12000D4F80413C96888472000FFF744
:102EA0005CFD94F8F002012816D12000FFF702FF24
:102EB000002084F8F0020FE0D4F8040340690028F1
:102EC0000AD094F8EC02032806D12900C9B22000E8
:102ED000D4F80423526990470020F2BD10B50400D5
:102EE0004023002200212000FEF7D6FF4020C4F836
:102EF0008C014023002280212000FEF7CDFF4020DE
:102F00006062012084F8EC02D4F80803002806D09F
:102F10006168C9B22000D4F80423526890470020A9
:102F200010BD0200117400207047010091F8EC02FE
:102F300081F8ED02042081F8EC02002070470100C6
:102F400091F8ED0281F8EC020020704710B5040002
:102F500094F8EC02032809D1D4F80403C0690028CE
:102F600004D02000D4F80413C9698847002010BD9C
:102F700038B504000D0094F8EC0203280BD1D4F806
:102F80000403006A002806D02900C9B22000D4F842
:102F90000423126A9047002032BD38B504000D00AA
:102FA00094F8EC0203280BD1D4F80403406A0028FB
:102FB00006D02900C9B22000D4F80423526A9047F1
:102FC000002032BD01000020704710B50400012030
:102FD00084F8EC026168C9B22000D4F80423526876
:102FE0009047002010BD38B58AB004000025002CA1
:102FF00001D101208AE0032084F8B9032000FEF704
:103000008DFE2068FDF71CF9211D83B0684634222F
:1030100001F050FD0EBC2068FDF7D4F800212068B7
:10302000FDF715F900200F2826D21C21012201FBF3
:1030300000F3234483F8392001FB00F2224482F894
:10304000380001FB00F22244D087002201FB00F38C
:10305000234483F83B20002201FB00F323441A643D
:10306000002201FB00F323445A64002201FB00F11B
:103070002144CA64401CD6E700250F2D2FD21C2006
:10308000002100FB05F2224482F8F91100FB05F152
:10309000214481F8F85100FB05F12144CD8700213E
:1030A00000FB05F2224482F8FB11002100FB05F22F
:1030B0002244C2F80012002100FB05F22244C2F8AB
:1030C0000412002100FB05F02044C0F80C1200207F
:1030D000216801EB8501C1F804016D1CCDE7211DBC
:1030E00083B06846342201F0E5FC0EBC2068FDF791
:1030F000CBF8012084F8B903606A012802D12000CE
:1031000000F0C0FD2068FDF76EFE00200BB030BD62
:1031100010B5040094F8B803012801D102200CE096
:10312000012084F8B8032068FDF74EFE2068FDF703
:1031300080F8002084F8B803002010BD2DE9F84F76
:10314000060037685FF0000800255FF000090024E2
:103150005FF0000A5FF0000B3068FDF792FE002878
:1031600040F09D823068FDF74DFE002800F0978208
:103170003068FDF747FE800705D53068406910F0DC
:103180000200316848613068FDF73CFE000377D5E6
:10319000002004003068FDF73BFE0500002D6FD0D5
:1031A000E8076AD52100C9B23068FDF745FE8146BF
:1031B0005FEAC97043D517EB441010F53060012168
:1031C00081603069012822D11C2000FB04F13144C8
:1031D000D1F8001217EB441212F530621269520353
:1031E000520B891A00FB04F23244C2F8101200FBA1
:1031F00004F13144D1F8041200FB04F23244D2F855
:103200000022114400FB04F03044C0F804122100F5
:10321000C9B23000FEF7AEFD306901280FD1002C95
:103220000DD11C2000FB04F03044D0F80C02002823
:1032300005D116F56F7201213068FDF748FE5FEA8F
:10324000097008D53000FEF78CFD17EB441010F51F
:103250003060082181605FEAC96005D517EB441032
:1032600010F53060102181605FEA896005D517EBA9
:10327000441010F5306020218160641C6D088DE7DA
:103280003068FDF7BFFD400379D53068FDF7CAFD12
:10329000050000200400002D71D0E8076CD5210046
:1032A000C9B23068FDF7D5FD81465FEAC97038D5EF
:1032B0000120A040824617F50060406B30EA0A000A
:1032C00017F50061486317EB441010F510600121F9
:1032D0008160306901280DD11C2000FB04F13144CC
:1032E000496C00FB04F23244126C114400FB04F000
:1032F000304441642100C9B23000FEF74DFD306911
:1033000001280ED1002C0CD11C2000FB04F030440D
:10331000C06C002805D116F56F7201213068FDF7E9
:10332000D6FD5FEA097005D517EB441010F5106063
:10333000082181605FEAC96005D517EB441010F5DC
:103340001060102181605FEA496005D517EB4410D9
:1033500010F51060402181605FEA897005D517EB98
:10336000441010F51060022181605FEA096003D506
:103370002100300000F03DFB641C6D088BE73068D5
:10338000FDF740FD00281CD517F500604068400897
:10339000400017F50061486096F8EC03012807D15A
:1033A000002086F8EC030021300000F07FFC02E0F2
:1033B0003000FEF71EFD3068406910F000403168B3
:1033C00048613068FDF71EFD00050DD517F500605A
:1033D0008068C00702D53000FEF704FD3068406900
:1033E00010F40060316848613068FDF70BFD0001A2
:1033F0001AD53068406910F000603168486196F86D
:10340000EC0300280DD1012086F8EC033068406DF4
:10341000C0F38300C6F8F0030121300000F046FC41
:1034200002E03000FEF7DEFC3068FDF7EBFCC00484
:1034300066D517F5006040684008400017F5006148
:10344000486010213068FCF7FDFF0020804670685E
:1034500080450DD2FF2017EB481111F510618860EF
:1034600017EB481111F53061886018F10108EEE79B
:103470005FF0FF3017F50061886117F50060C069E3
:1034800050F0011017F50061C861306B002812D0B0
:1034900017F50060D0F8840050F00B0017F50061BC
:1034A000C1F8840017F50060406C50F00B0017F570
:1034B000006148640FE017F50060406950F02B0090
:1034C00017F50061486117F50060006950F00B00C6
:1034D00017F50061086117F50060006830F4FE60C0
:1034E00017F50061086016F56F723169C9B230686E
:1034F000FDF7EDFC3068406910F480503168486198
:103500003068FDF77FFC80042CD53068FDF7BDFCEA
:103510003068C06830F470503168C8603068FCF7BB
:10352000BFFF00280BD10020F0604FF400707061E5
:103530003068C06850F410503168C86009E003205A
:10354000F060402070613068C06850F4C05031684D
:10355000C8603000FEF738FC3068406910F4005055
:10356000316848613068FDF74DFCC00647D53068CA
:10357000806930F0100031688861386A83461BF03A
:103580000F011C20414306EB010010F5FC70009078
:10359000CBF3434002281BD147F6F0701BEA000F23
:1035A00027D0CBF30A1292B20098C1683800FDF719
:1035B00046FB0098C068CBF30A1108440099C86024
:1035C00000988169CBF30A1041180098816110E0DE
:1035D000CBF3434006280CD1082216F56F71380052
:1035E000FDF72DFB00988169CBF30A104118009874
:1035F00081613068806950F01000316888613068FE
:10360000FDF700FC000708D53000FEF7D6FB306858
:10361000406910F00800316848613068FDF7F2FB3E
:10362000C0020AD52100C9B23000FEF7F3FB3068B2
:10363000406910F48010316848613068FDF7E2FBA2
:1036400080020AD52100C9B23000FEF7D9FB3068EC
:10365000406910F40010316848613068FDF7D2FB12
:10366000400008D53000FEF7DFFB3068406910F0FD
:103670008040316848613068FDF7C4FB40070ED5D3
:103680003068406883465FEA4B7002D53000FEF731
:10369000D2FB306840685BEA000031684860BDE8F2
:1036A000F18F38B504000D0094F8B803012801D15A
:1036B00002200BE0012084F8B8032900C9B2206879
:1036C000FDF76BFB002084F8B803002032BD2DE924
:1036D000F84304000D0016001F005FF000082800EA
:1036E000C0B200060AD52900C9B211F07F011C2022
:1036F000414304EB010010F1380909E02900C9B287
:1037000011F07F011C20414304EB010010F5FC790E
:1037100015F07F0089F800002800C0B2C00989F8C0
:103720000100300080B2C9F8080089F8037099F8E8
:103730000100002803D099F80000A9F8060038001D
:10374000C0B2022802D1002089F8040094F8B8031E
:10375000012801D102200BE0012084F8B80349467A
:103760002068FCF7C4FE002084F8B8034046C0B2CD
:10377000BDE8F28370B504000D002800C0B2000659
:103780000AD52900C9B211F07F011C20414304EB86
:10379000010010F1380609E02900C9B211F07F01DB
:1037A0001C20414304EB010010F5FC7615F07F006E
:1037B00030702800C0B2C009707094F8B8030128B6
:1037C00001D102200AE0012084F8B803310020680A
:1037D000FCF7EDFE002084F8B803002070BD2DE951
:1037E000F04104000D0016001F002900C9B211F0BD
:1037F0007F011C20414304EB010010F5FC78C8F860
:103800000C60C8F814700020C8F81800002088F870
:10381000010015F07F0088F800002069012801D11F
:10382000C8F8106015F07F0F06D12269D2B2414668
:103830002068FDF7E9F805E02269D2B24146206828
:10384000FCF73BFF0020BDE8F081C9B211F00F0189
:103850001C2251430844D0F8100280B270472DE971
:10386000F04104000D0016001F002900C9B211F03C
:103870007F011C20414304EB010010F13808C8F817
:103880000C60C8F814700020C8F81800012088F8EF
:10389000010015F07F0088F800002069012801D19F
:1038A000C8F8106015F07F0F06D12269D2B24146E8
:1038B0002068FDF7A9F805E02269D2B241462068E8
:1038C000FCF7FBFE0020BDE8F08170B504000D00A0
:1038D0002800C0B200060AD52900C9B211F07F0144
:1038E0001C20414304EB010010F1380607E02900D9
:1038F000C9B21C20414304EB010010F5FC76012005
:10390000B07015F07F0030702800C0B2C009707030
:1039100094F8B803012801D1022014E0012084F8B2
:10392000B80331002068FDF79EF915F07F0F06D12E
:1039300014F56F722169C9B22068FDF7C8FA00203A
:1039400084F8B803002070BD70B504000D00280095
:10395000C0B200060AD52900C9B211F07F011C20AF
:10396000414304EB010010F1380607E02900C9B219
:103970001C20414304EB010010F5FC760020B070E0
:1039800015F07F0030702800C0B2C009707094F844
:10399000B803012801D102200AE0012084F8B8030D
:1039A00031002068FDF7AEF9002084F8B80300204C
:1039B00070BD38B504000D0094F8B803012801D19A
:1039C000022015E0012084F8B8032800C0B20006E8
:1039D00007D52900C9B211F07F012068FCF732FD3C
:1039E00002E02068FCF740FD002084F8B8030020C6
:1039F00032BD2DE9FC4705000E002F6800205FF066
:103A000000081C2101FB06F1294411F13809D9F8FD
:103A10001410D9F818400C1BD9F80810A14202D292
:103A2000D9F80800040014F1030A5FEA9A0A17EBB8
:103A3000461010F51060806980B2824531D2D9F805
:103A40001800D9F8141088422BD2D9F81400002895
:103A500027D0D9F81410D9F81800091A0C00D9F891
:103A60000800A04202D2D9F808000400E01C800837
:103A700082462869C0B20090200003009BB2320049
:103A8000D2B2D9F80C103800FDF7B5F8D9F80C000F
:103A90002044C9F80C00D9F818002018C9F81800FB
:103AA000C5E7002C0AD10120B040804617F5006020
:103AB000406B30EA080017F5006148630020BDE85C
:103AC000F68730B4002513E050F8042BD30744BF29
:103AD000A9F101039A18091F042942F8045BFAD2DC
:103AE00013468C0744BF15809B1CC90748BF1D7037
:103AF00050F8041B0029E7D130BC704738B50400EA
:103B000000F064FD050000F064FD01002800C0B273
:103B1000052804DB2800C0B20A2800D06D1F002C45
:103B200041D00800C0B200281FD1294820602A00D7
:103B3000D2B2002A08D0022A0CD0032A0DD0042ABF
:103B40000ED00A2A0FD002E0224820602BE0224843
:103B5000206028E02148206025E02148206022E004
:103B6000204820601FE020601DE02800C0B200282F
:103B700008D002280CD003280DD004280ED00A2823
:103B80000FD002E0184820600DE0184820600AE0DD
:103B90001748206007E01748206004E016482060BE
:103BA00001E0164820602800C0B20A2804D014485A
:103BB000EDB230F8150001E01148408932BD80B502
:103BC00000F004FD0F49C0B251F8200002BD000012
:103BD000B46C0008B46B0008946600081C68000808
:103BE000D8680008346C0008346D00085867000875
:103BF00094690008506A0008B46D0008346E00082B
:103C0000147100086400002070B403000024002038
:103C10001D686D6A0E00F6B2002E06D1100080B24B
:103C200055EA00401E68B06222E01868806A15EB11
:103C30001045002004002000C0B20E00F6B2761E2F
:103C4000B0420ADA18682600F6B200EB8600D0F817
:103C5000040115EB1045641CEDE718680E00F6B280
:103C600000EB86001600B6B255EA0646C0F80061C1
:103C7000002070BC70470200080080B213685862D0
:103C80000020704701000A680120C1F8F4030020F9
:103C900081F8EC03906950F000609061506D40F045
:103CA000805050F003005065002070477047704707
:103CB00010B504004FF47A700D490978B0FBF1F0AB
:103CC0000C490968B1FBF0F0FEF7B1FF002801D004
:103CD00001200CE0102C09D2002221005FF0FF30FF
:103CE000FEF789FF04480460002000E0012010BDB9
:103CF000CF010020600000205C0000206A480168BD
:103D000051F0C00101606948016851F088410160CB
:103D10006748016851F4204101606648016851F428
:103D2000001101602A20644908600D206349086081
:103D30004CF20500624908604FF480406149086018
:103D4000012061490860704738B504000D002968FA
:103D5000200000F076F8A91DAA88100080B2002883
:103D600009D00878594B1860594800684007FBD5BE
:103D7000491C521EF1E75448036853F40073036072
:103D80005348006831BD70B504000D00296820005B
:103D900000F057F86078400050F00100C0B200F029
:103DA00074F84948016851F48061016048490A6823
:103DB0009207FBD5474A1268AA1DAB880E687606A3
:103DC000FCD5424E366816701E00B6B2012E03D0E6
:103DD000066856F480660660521C5B1E1E00B6B272
:103DE000012E07D1066836F480660660066856F430
:103DF000007606601E00B6B2002EDFD1086870BDE6
:103E000038B50400012560784000C0B200F03DF8EC
:103E10002F48016840F202421142F9D02D49096849
:103E20000168490505D5016831F480610160002011
:103E300005002548016851F4007101602800C0B2F6
:103E400032BD38B504000D0060784000C0B200F00B
:103E50001CF81F4801688907FBD51E490968002125
:103E60000A00E378D2B29A420ED2E278521E521A77
:103E7000D2B2D2002B00D340DBB2144A13600268E6
:103E80005207FCD5491CEBE731BD0F490A6852F4D3
:103E900080720A600E490968C907FBD50100C9B2E2
:103EA0000A4A1160704700000404024020040240E6
:103EB00000040240403802400454004020540040B6
:103EC0001C5400400854004000540040105400406E
:103ED00014540040185400405748016841F0805184
:103EE00051F0050101605548016841F4800151F429
:103EF00080610160016851F4803101607047010008
:103F00004AF6444291420CD04D4A914223D04D4A48
:103F100091422FD04C4A91423BD04C4A914243D0DF
:103F20000AE04B490A6832F020020A6049490A68EF
:103F3000920892000A6041E045490A6832F0200286
:103F40000A6044490A6852F001020A600A6832F0C5
:103F500002020A6032E03E490A6852F020020A601A
:103F60003C490A68520852000A600A6852F002028C
:103F70000A6023E036490A6832F020020A603549B7
:103F80000A68520852000A600A6852F002020A6087
:103F900014E02F490A6852F020020A602D490A688D
:103FA00052F003020A6009E029490A6832F020024F
:103FB0000A6028490A6852F003020A60704701004B
:103FC000C9B210290AD122490A6832F400620A6093
:103FD00020490A6832F480420A601CE00100C9B23C
:103FE00018290AD11A490A6852F400620A6019496C
:103FF0000A6832F480420A600DE00100C9B220294B
:1040000009D113490A6832F400620A6011490A684A
:1040100052F480420A6070470100C9B2002905D0FD
:104020000B490A6852F480720A6004E008490A6881
:1040300032F480720A6070470004024000080240B7
:10404000885801000077010010B1020000EE020064
:104050001408024014040240DFF8F0170978891EA2
:1040600002290ED9083905D00FF2250181650021FA
:10407000C1650CE00FF2190181650FF2B501C16550
:1040800005E00FF2490181650FF2CD01C16570476E
:10409000F8B504000D0016003000C0B2032801D1AD
:1040A00004200600280080B2012190FBF1F03100CD
:1040B000C9B290FBF1F7390089B2200000F0E4FDAD
:1040C000DFF88C0700F02AFFF1BD0000F8B504000E
:1040D0000D0016003000C0B2032801D104200600F4
:1040E000280080B2DFF86C17097890FBF1F03100FE
:1040F000C9B290FBF1F7390089B2200000F0C4FD8D
:10410000390089B23000C0B2022290FBF2F23800CE
:1041100080B2424304EB420000F0C4FDDFF83807F0
:1041200000F0FCFEDFF8280700F0F8FEF1BD00000B
:1041300030B400231C000D00A4B2ADB2AC4208D2D2
:104140001C00A4B20459240A1D00ADB244511B1D29
:10415000F0E730BC704700002DE9F84F04000D0077
:104160001600DFF8F006290089B2027891FBF2F719
:104170003100C9B2032901D104210E00017816FBD8
:1041800001F1C9B249008DF800109DF800100278C5
:1041900091FBF2F800210A002B0092B29BB29A42E6
:1041A00080F0A6800A0092B2037892FBF3F200231B
:1041B0009C4690F800E05FFA8CFCF44580F0938018
:1041C0009C465FFA8CFC1CFB07FC9E465FFA8EFE49
:1041D000C1465FFA89F91EFB09FEDFF88096F246B8
:1041E0001FFA8AFA1AFA81FA14F80AA093461FFAFB
:1041F0008BFB1BFA8CFB09F80BA092461FFA8AFA7C
:104200001AFA8CFACA44F3461FFA8BFB1BFA81FB9D
:10421000A3449BF801B08AF801B092461FFA8AFACB
:104220001AFA8CFACA44F3461FFA8BFB1BFA81FB7D
:10423000A3449BF802B08AF802B092461FFA8AFAA9
:104240001AFA8CFACA44F3461FFA8BFB1BFA81FB5D
:10425000A3449BF803B08AF803B0B2465FFA8AFA27
:10426000BAF1040F3DD192461FFA8AFA1AFA8CFA73
:10427000CA44F3461FFA8BFB1BFA81FBA3449BF84D
:1042800004B08AF804B092461FFA8AFA1AFA8CFA35
:10429000CA44F3461FFA8BFB1BFA81FBA3449BF82D
:1042A00005B08AF805B092461FFA8AFA1AFA8CFA13
:1042B000CA44F3461FFA8BFB1BFA81FBA3449BF80D
:1042C00006B08AF806B01FFA8CFC1CFA82FCCC44BB
:1042D0001FFA8EFE1EFA81FEA6449EF807E08CF8B7
:1042E00007E05B1C64E79DF8002051FA82F152E779
:1042F000A9461FFA89F9DFF864A5A3464A46514644
:10430000584600F0C7FBBDE8F18F70B50400DFF838
:104310004055280000F0F0FCDFF8446530780228B2
:1043200003D1DFF8340500F0E7FCDFF8380500784A
:10433000002805D1200000F00CFC200000F060FCFB
:104340002000FFF7DCFD3078022803D1DFF80805F4
:1043500000F0BCFC280000F0B9FC70BD70B5040092
:10436000DFF8EC54280000F0C7FCDFF8E004017827
:10437000052927DADFF8E8643078022803D1DFF86E
:10438000D80400F0B9FC2100C9B2280000F001FDFA
:104390002100C9B2DFF8D00400F002FE3078022814
:1043A0002BD1DFF8B4642100C9B2300000F0F1FC79
:1043B0002100C9B2DFF8B40400F0F2FD300000F0D3
:1043C00085FC1AE000780A2806D12100C9B2DFF87E
:1043D000980400F0E5FD10E0DFF878040078C0B242
:1043E0004200D2B22100C9B2280000F010FD210025
:1043F000C9B2DFF8740400F0D3FD280000F066FCB9
:104400002000C0B2FFF7DBFD70BD10B50400210035
:10441000C9B2DFF83C0400F061FCDFF84404007826
:10442000022805D12100C9B2DFF82C0400F056FCA7
:104430002000C0B2FFF7F0FD10BD80B500F01FFCFA
:10444000DFF808140A78052A08DB09780A2905D05C
:1044500080B2DFF80014097890FBF1F080B202BD61
:1044600080B500F008FCDFF8E4130A78052A08DBC1
:1044700009780A2905D080B2DFF8D813097890FBB3
:10448000F1F080B202BD70B504000D00DFF8D46316
:104490003078002803D1200000F05BFB04E0307886
:1044A000012801D100F0D4FB00F08CFD2800C0B23F
:1044B00000F039FDDFF894030178052902DB00786C
:1044C0000A281AD1DFF88C0301782800C0B200F066
:1044D0001BFCDFF88C030078022818D100F0A2FD45
:1044E0002800C0B200F03FFD2800C0B200F042FC3E
:1044F000DFF8640300F0EAFB09E0DFF85803007816
:10450000C0B24100C9B22800C0B200F0FDFB307853
:10451000002803D1200000F073FB04E0307802286B
:1045200001D100F019FC2000FFF7E9FC2800C0B21F
:10453000FFF745FDDFF8180300F0C8FB70BDDFF89A
:104540000C130A781300DBB20A2B02D101231A00E4
:1045500004E01300DBB2052B00DB521F1300DBB2BB
:10456000022B08D002D3042B0FD009D302230371EE
:104570000323C3800DE0042303710F23C38008E0ED
:10458000042303713323C38003E008230371FF2353
:10459000C380032343744BF68033036001230381FC
:1045A0000023C360002303741300DBB2002B04D18B
:1045B00004214174AE49016007E00B78042B02D05E
:1045C0000978092901D10221417470479F48007878
:1045D0007047A84800787047A7490A68A749096842
:1045E0008A180260A6490968090C984A1278891845
:1045F0004160A0490978002902D041680B3141602F
:1046000041680904416070479E4870479E48704762
:104610009E4870471CB500208DF8000001208DF8E1
:10462000020000208DF8010000208DF8030087496A
:104630009748026812F00E020A700A78002A2BD0FE
:10464000022A1DD0062A15D0082A1FD00A2A08D10E
:1046500000220A700122824B1A7001227D4B1A70CF
:1046600025E001220A7001227D4B1A700122794B4C
:104670001A701CE002220A700222764B1A7016E0B1
:1046800003220A700222734B1A7010E004220A708F
:104690000422704B1A700AE00A220A700122704B41
:1046A0001A7001226B4B1A7002228DF803200A78CF
:1046B0000A2A13D00268120410D40A78521D0A7014
:1046C0000122674B1A7001228DF80320714A13688A
:1046D00053F0100313601368DB06FCD5046814F470
:1046E000C044220092B2B2F5005F06D0B2F5804F0E
:1046F00007D000225B4B1A7006E00122594B1A705A
:1047000002E00222574B1A70634A1268D20502D4A3
:1047100001228DF80020614A13689B0602D4002311
:104720008DF8023009780A2908D00168090405D4F7
:104730001168490702D401218DF801100068C006F4
:1047400004D402204B49087000F0C6FC684600F013
:10475000F5F900F001F813BD80B500F0AFF80128BD
:1047600006D100F0B0F810F1010F01D000F001F80F
:1047700001BD38B5A2B0082000900420ADF80400B7
:10478000684600F094F802210DF10600FEF7A5F945
:104790000400200080B2143000901920ADF804000D
:1047A000684600F084F800200100C9B204290ADA42
:1047B00069460200D2B211448979324A0300DBB261
:1047C000D154401CF0E79DF80A50002001002A0057
:1047D000C9B2D2B291420BD269460200D2B21144A0
:1047E000C97A284A0300DBB21A441171401CEDE774
:1047F000164801782920414311FA84F02D300090A9
:104800002920ADF80400684600F051F800200100AE
:104810009DF80620C9B2914215D21A496A46030092
:10482000DBB21A44D2790300DBB20B441A760200E1
:10483000D2B2002A05D10A7EFF2A02D100220A76CE
:1048400001E0401CE3E723B030BD0000CC010020B4
:1048500024580140CE01002004580140D40100201A
:10486000CD010020371200208864024028640240F5
:104870000077010036120020107AFF1F187AFF1F00
:10488000147AFF1F00000020040000201800002000
:10489000100802400C0402401000024010040240C4
:1048A00010B5040021002948FFF74EFA10BD10B5DD
:1048B000040021002548FFF766FA10BD80B52348A3
:1048C000FFF79EFA02BD80B5A2B00420ADF8040047
:1048D0000020009069461D48FFF755FA04210DF1AC
:1048E0000600FEF7FAF823B000BD38B5A2B0FFF716
:1048F000EAFF040014F1010F25D0E409641C8020B4
:10490000ADF804000020009000200100C9B2802909
:1049100007DAFF216A460300DBB21A449171401C9A
:10492000F3E70025280080B2A0420CD2FFF7C6FFB3
:104930000128FBD169460548FFF706FA0098803048
:1049400000906D1CEEE723B030BD00005800002041
:1049500038B50400474D002247492800FEF77CF98E
:104960002000C0B2FDF79CFB2000C0B2012808D196
:1049700042492800FEF78CF941492800FDF793F8D9
:1049800003E040492800FEF783F92800FEF78BF981
:1049900031BD38B5040000200100C9B2402908DA51
:1049A0000100C9B2615C384A0300DBB2D154401C3B
:1049B000F2E7354D6878002806D0022813D00CD3D2
:1049C00004281CD015D335E030480078E87000F09A
:1049D0004BF8280000F02FF82CE02C48017851F01B
:1049E0000201017026E02948017851F004010170AC
:1049F00020E02648017851F0080101701AE00320F8
:104A0000E87001202871062068710020A87100203C
:104A1000E8710220A8721D480078400602D50120E6
:104A2000E87201E00020E87200F01EF8280000F0B3
:104A300002F8FFE731BD10B50400402221000D4807
:104A400000F08FFC00201249087010BD0F4870471D
:104A50000E490A7882430A7070470C490A7802436B
:104A60000A70704708487047094800780128FBD150
:104A700070470000100C00207C01002090000020F6
:104A8000D4000020E8000020601100203A1200202D
:104A9000D001002062B38B0708D0521E11F8013BF1
:104AA00000F8013B00F024808B07F6D1830740F02B
:104AB000208000BF103A07D330B4B1E83810103A64
:104AC000A0E83810F9D230BC530724BFB1E8081071
:104AD000A0E8081044BF51F8043B40F8043BD2075B
:104AE00024BF31F8022B20F8022B44BF0B7803704F
:104AF0007047121F17D35B0009D151F8043B20F80F
:104B0000023B1B0C121F20F8023BF6D20BE051F8BF
:104B1000043B00F8013B1B0A20F8023B1B0C121F50
:104B200000F8013BF3D238BF121D521E24BF11F80A
:104B3000013B00F8013BF8D870470000DFF804158E
:104B400002780A7082788A7042784A70C278CA7095
:104B5000704710B4DFF8F0140A6832F080520A602F
:104B60000A689200FCD4DFF8E424136833F4F853A5
:104B7000136003004AF64444A3420DD0DFF8D0444A
:104B8000A3421ED0DFF8CC44A3422BD0DFF8C824C8
:104B9000DFF8C8341A602AE0DFF8A834DB78022B8B
:104BA00009D0DFF8BC34DFF8B4442360136853F451
:104BB0009053136004E0DFF8AC24DFF8A0341A60EF
:104BC00015E0DFF88024D278022A05D0DFF894249B
:104BD000DFF888341A6004E0DFF88C24DFF87C34D6
:104BE0001A6004E0DFF88024DFF870341A600A6885
:104BF00052F080520A600A689200FCD510BC7047DF
:104C000010B4DFF868140A6832F470020A600022F7
:104C10004AF64443984216D0DFF83434984212D012
:104C2000DFF8303498420ED04BF68033B0FBF3F30C
:104C30005B08D3F10203DFF80C44E478022C00D1C6
:104C40005B1E1A0012050B6813430B6010BC704703
:104C5000DFF81C04016851F400210160DFF814043E
:104C6000016851F050010160DFF8E003016851F480
:104C7000401101607047DFF8000400887047DFF8DA
:104C8000FC03006880B2704738B504000D002A00AC
:104C900092B22100DFF8E80300F00FF8DFF8D80344
:104CA000058031BD38B504000D002A0092B2210004
:104CB000DFF8D00300F001F831BD13009BB2436070
:104CC000C160036853F0010303607047016851F449
:104CD000803101600168C903FCD570470A00D2B277
:104CE000002A04D0426852F02002426003E0426889
:104CF00032F0200242607047016831F48031016077
:104D00000168C903FCD4704770B504000D00DFF8DA
:104D10007803016851F48001016001684902FCD503
:104D2000DFF848633000FFF7E7FFC648C078012886
:104D300007D002280DD02100C9B2300000F029F8B8
:104D400009E02A00D2B22100C9B2300000F05FF8B9
:104D500001E00420306070BDC448016851F00201D8
:104D60000160B8498978012903D1016851F40071C3
:104D70000160704738B50400C44D2800FFF7BCFF40
:104D800040F2024028602100C9B2280000F001F87A
:104D900031BD012242605FF4A0228260A94A93786B
:104DA000012B03D1036853F400730360036833F0ED
:104DB000E00303600B00DBB2102B17D1036853F044
:104DC000800303601278002A07D1836840F61F72BF
:104DD00013438360AE4AC26014E0826842F4F85222
:104DE00052F03F028260AB4AC2600BE0826842F43C
:104DF000F85252F03F028260026852F0E002026014
:104E0000A54AC260026852F4005202607047F0B4D2
:104E10000B00DBB2182B01D12023190001234360C2
:104E20000B00DBB21400E4B213FB04F40B00DBB2A2
:104E3000102B05D1834B1B78012B01D1A4B2640048
:104E4000804D6B78002B06D123009BB25B1E53F480
:104E5000C02383600DE023009BB2022693FBF6F390
:104E60005B1E2600B6B2761E56EA032656F480363E
:104E70008660AB78012B03D1036853F400730360A1
:104E8000036833F0E00303600023002637009446F4
:104E9000FFB25FFA8CFC674504D20127B7403B4361
:104EA000761CF3E70E00F6B2102E22D1066856F0FB
:104EB000800606602D78012D0FD1D2B25200002558
:104EC0002B0000252E001700F6B2FFB2BE4204D21E
:104ED0000126AE403343AD1CF4E71D00ADB2160011
:104EE000F6B2761E360256EA054656F04006C66011
:104EF0000EE0056855F0E00505601D00ADB2160036
:104F0000F6B2761E360256EA054656F08006C660B0
:104F1000056855F400550560F0BC7047016851F410
:104F200000310160704738B504005C48016851F4F5
:104F30008001016001684902FCD5514D2100C9B2D0
:104F4000280000F01BF8286850F010002860544832
:104F500054490860002202214420FDF74CFE442001
:104F6000FDF75EFE31BD10B504002100C9B2454811
:104F700000F004F84C484D49086010BD4C4A0260EE
:104F80000A00D2B2102A04D1026852F42052026000
:104F900003E0026852F4A0420260072242617047B7
:104FA000026832F4F04202600A00D2B2102A04D140
:104FB000026852F42052026003E0026852F4A042F8
:104FC000026070472A48016851F0020101603948C7
:104FD000016851F0060101603748016851F0030192
:104FE00001603648016851F002710160344801687F
:104FF00041F4C02151F0600101603248016851F074
:10500000437101603048016851F4002101602F486C
:10501000016851F0600101602D48016851F44021A0
:10502000016070472548016851F02001016029485E
:10503000016851F4C06101602248016851F03001FB
:105040000160704720120020003802408C38024076
:105050008858010010B10200085600078838024045
:10506000486B0002473B000C473B000624580140B8
:105070000008024024080240321200208C640240E2
:1050800088640240286402404438024004580140C9
:105090004001030040030500800103003038024056
:1050A0004058014090640240205801403064024062
:1050B00040040200200802400808024000040240A8
:1050C0002404024008040240000002402400024080
:1050D000080002402004024080B51148016851F4E4
:1050E000407101600F48016851F0005101600120DA
:1050F0000D4908600120FBF73BFF00200B490860C9
:1051000001BD0200D2B240F6FF714A43642192FB16
:10511000F1F10A0092B21205120D044B1A607047A9
:105120000000024040380240007400400874004013
:1051300070B505000E005420FCF7CEFC0400002CD6
:1051400004D10020C5F8080302202CE0C5F808436C
:10515000287C002806D10520A5F840000520A5F8E8
:10516000A80105E00120A5F840000120A5F8A8014C
:105170004023032281212800FCF78EFE01202863B2
:105180004023032201212800FCF786FE0120C5F8F8
:105190009801002084F850004023220001212800BB
:1051A000FCF710FF002070BD38B504000D00812110
:1051B0002000FCF782FE002020630020A4F84000BD
:1051C00001212000FCF779FE0020C4F8980100209E
:1051D000A4F8A801D4F80803002806D0D4F80803DE
:1051E000FCF74DFD0020C4F80803002032BD2DE976
:1051F000F84304000D00D4F8086300275FF00008AE
:105200000020ADF800005FF00009287810F0600081
:10521000002833D0202840F09A806878022817D0E0
:10522000032808D009281AD00A280BD00B281ED131
:10523000A878306421E0012216F140012000FDF73A
:1052400037FB1AE0688880B2000AC0B2706414E0CC
:10525000012216F144012000FDF72AFB0DE0012098
:10526000F064EA8831002000FDF745FB05E02900E5
:105270002000FDF7E0FA032081466EE06878002800
:1052800008D001285BD0062815D00A2837D00B2873
:1052900047D055E094F8EC02032805D10222694674
:1052A0002000FDF705FB05E029002000FDF7C3FA0B
:1052B000032081464AE0688880B2000A80B2222832
:1052C00008D1E888222801DB212700E0EF88484840
:1052D00080460DE0688880B2000A80B2212807D19C
:1052E00044488046E8880A2801D3092700E0EF886F
:1052F0003A0092B241462000FDF7DAFA26E094F82F
:10530000EC02032806D1012216F148012000FDF726
:10531000CFFA05E029002000FDF78DFA0320814631
:1053200014E094F8EC02032802D1A878B06405E0F8
:1053300029002000FDF77FFA0320814606E005E002
:1053400029002000FDF777FA0320814605E02900B7
:105350002000FDF770FA032081464846C0B2BDE840
:10536000F283F8B504000D001600D4F808030028F5
:1053700001D1032017E0D4F8087394F8EC02032855
:1053800010D197F8500000280AD1012087F850006A
:1053900033009BB22A0081212000FCF703FE01E0CC
:1053A000012000E00020F2BD010029200880124801
:1053B000704702000020D2F8083383F85000012023
:1053C0000E4B18700020704770B504000D00D4F823
:1053D0000803002801D1032008E0D4F80863300056
:1053E000FFF7D7FA064800F00DF8002070BD000066
:1053F000580100204C01002020010020D001002095
:10540000100C002038B50400D4F80803002801D19E
:10541000032008E0D4F8085340232A00012120008B
:10542000FCF7D0FD002032BD0100002070470000D5
:105430002DE9F04704000D00160037005FF060080A
:105440005FF00009BA464A4641465046FCF7E4FB85
:105450000120387201203870FD607C604FF440609C
:10546000FCF73AFBF864F86C002801D1FDF730FB3B
:10547000380000F019FA0FF2D93078620FF20140CB
:10548000B8620FF21140F8620FF2595038630FF210
:10549000695078630FF2BD50B8630FF2CD50F863D6
:1054A0003800FEF7D9FD617CC900C9B27868006890
:1054B000FEF7E9FF7868427CB7F84810786CBB6D5E
:1054C0009847DFF80C15086800280DD0BFF34F8F00
:1054D000DFF800150A6812F4E062DFF8FC0402430A
:1054E0000A60BFF34F8FFEE70F600020BDE8F08732
:1054F0002DE9F84FDFF8D8643068002800F0A68165
:1055000030680078002800F0A181306890F85400DD
:10551000800704D50020316881F8540096E1306896
:1055200090F85400400715D50320316808703068A2
:1055300000F0BAF9002031680877306840680068E8
:10554000FEF7E3FE306890F8540010F0FB0031687D
:1055500081F85400306890F85400C00725D53068B1
:10556000C06C316848643068B0F840003168A1F818
:1055700048000020316881F853003068B0F8487066
:105580005FF000083068D0F8449042463900484641
:10559000FCF742FB032031680870306890F8540033
:1055A00090F00100316881F85400306890F85400A0
:1055B000000714D5032031680870306800F074F9D2
:1055C00030684068407CC000C0B2FEF7C7FE30685B
:1055D00090F8540010F0F700316881F854003068FA
:1055E0004068427C3068B0F848103068406C3368DE
:1055F0009B6D984730680078022840F0278130681A
:10560000C268316803203368DB689B68984730685C
:105610004068407C032817D1306890F85300002878
:1056200002D03068C06C05E03068C06C3168B1F8F9
:105630004810084431684864306890F8530090F08E
:105640000100316881F853003068B0F840003168DB
:10565000A1F848003068008B04004AF644413068E5
:105660004068006888420BD0306840680068DB4AB8
:10567000904205D0306840680068D94A90422ED1E7
:10568000306840680068884203D13068007F09288C
:1056900013DB306840680068D04A904203D130681C
:1056A000007F042809DB306840680068CC4A9042DB
:1056B00009D13068007F042805DA3068007F401C7B
:1056C000326810770BE00020326810773068B0F84D
:1056D00050003268A2F848003068408B04003068FF
:1056E0004069C088326852699288904207D3306816
:1056F0004069C088326852699588451B0AE0306865
:105700004069C28830684069008982183068406901
:105710008588551B28003268B2F8402080B290423C
:1057200008D23068C268316805203368DB689B683E
:1057300098478BE030684068407C032808D12200FD
:1057400092B23068416C3068406900F066F955E00B
:105750003068406900683268526992881044326843
:10576000506430684068006888420BD030684068F8
:1057700000689A49884205D03068406800689849B6
:1057800088423BD1306840690089316849698F8817
:10579000C71B38003168B1F8481080B288422DD25A
:1057A000B8461FFA88F8306840690068316849696E
:1057B000898800EB01093068D0F84CA04246494680
:1057C0005046FFF767F93068B0F84800BA461FFA4C
:1057D0008AFAB0EB0A0A30684069006800903068C5
:1057E000C06C390089B200EB010B52460099584653
:1057F000FFF750F93068C06C316848643068C06D9C
:1058000000280AD030684068427C3068B0F8481000
:105810003068406C3368DB6D984730684069808839
:10582000201831684969888030684069808831680B
:1058300049690989884209D330684069818830689C
:1058400040690089091A306840698180BDE8F18F9C
:1058500070B504000D002E007461002086F854001D
:105860002A007068017C002000F0BCF82A007068F3
:10587000C168002000F0C0F802203070002070BD28
:1058800001000A0092F8540050F0010082F8540020
:105890000020704701000A0092F8540050F0040004
:1058A00082F8540000207047F8B504006068006872
:1058B0004FF47A71B0FBF1F06168097910FB01F0E7
:1058C0006168497C10FB01F02083606800684FF438
:1058D0007A71B0FBF1F06168097910FB01F0616841
:1058E000497C10FB01F0A4F84000002084F852002D
:1058F000002084F853006068407C032814D160685D
:1059000000684FF47A71B0FBF1F06168097910FB1F
:1059100001F080B28000A4F84000012084F8520019
:10592000B4F84000A4F85000606800684AF64441AA
:10593000884209D0606800682849884204D06068BD
:1059400000682749884232D1012084F85200244956
:1059500060680068884208D0228B606803796068BC
:10596000407C43439818608302E04FF432706083B8
:105970006068006888420AD0B4F840106068427CD1
:105980006068007942435018A4F8500003E04FF4D7
:105990003270A4F850006068407C032807D1B4F846
:1059A00040006168097989000818A4F85000B4F82B
:1059B00040500026E76C320029003800FCF72CF933
:1059C000E06C6064B4F84000A4F84800F1BD000049
:1059D000101200200CED00E00400FA0588580100C8
:1059E00010B1020070B504000D0016002800C0B20E
:1059F000FEF70BFD002070BD70B504000D00160011
:105A000015F5F051642041434FF4F05091FBF0F054
:105A1000C0B2FFF776FB002070BDF0B4002384888D
:105A20000025954213DA0026CE545B1C0026032E77
:105A30000BDA0789BC4201D100273C0007683F5DB3
:105A4000CF54641C5B1C761CF1E7ED1CE9E7F0BC4D
:105A50007047000038B504002500FEF7EEFCA5F8FD
:105A60005600002032BD000070B504002500FEF78E
:105A7000E4FC0600FEF7F4FC0100B5F85600B04265
:105A800003DBB5F85600801B03E0881BB5F85620F1
:105A90008018B0EB610F00DA0818A5F8566080B2E4
:105AA00070BD010091F8542052F0080281F8542092
:105AB0007047000070B404001D006960EA600020B7
:105AC000287501202870002028720FF299002862A2
:105AD0000FF29D0068620FF2DD00A8620FF2C900AC
